{
  "contractName": "Dtv",
  "abi": [
    {
      "anonymous": false,
      "inputs": [
        {
          "indexed": false,
          "internalType": "uint256",
          "name": "id",
          "type": "uint256"
        },
        {
          "indexed": false,
          "internalType": "string",
          "name": "title",
          "type": "string"
        }
      ],
      "name": "videoDeleted",
      "type": "event"
    },
    {
      "anonymous": false,
      "inputs": [
        {
          "indexed": false,
          "internalType": "uint256",
          "name": "id",
          "type": "uint256"
        },
        {
          "indexed": false,
          "internalType": "string",
          "name": "hash",
          "type": "string"
        },
        {
          "indexed": false,
          "internalType": "string",
          "name": "title",
          "type": "string"
        },
        {
          "indexed": false,
          "internalType": "string",
          "name": "description",
          "type": "string"
        },
        {
          "indexed": false,
          "internalType": "string",
          "name": "tag",
          "type": "string"
        },
        {
          "indexed": false,
          "internalType": "address",
          "name": "author",
          "type": "address"
        }
      ],
      "name": "videoUploaded",
      "type": "event"
    },
    {
      "inputs": [
        {
          "internalType": "uint256",
          "name": "",
          "type": "uint256"
        }
      ],
      "name": "temp",
      "outputs": [
        {
          "internalType": "uint256",
          "name": "globalId",
          "type": "uint256"
        },
        {
          "internalType": "uint256",
          "name": "localId",
          "type": "uint256"
        },
        {
          "internalType": "string",
          "name": "hash",
          "type": "string"
        },
        {
          "internalType": "string",
          "name": "title",
          "type": "string"
        },
        {
          "internalType": "string",
          "name": "description",
          "type": "string"
        },
        {
          "internalType": "string",
          "name": "tag",
          "type": "string"
        }
      ],
      "stateMutability": "view",
      "type": "function",
      "constant": true
    },
    {
      "inputs": [
        {
          "internalType": "address",
          "name": "",
          "type": "address"
        },
        {
          "internalType": "uint256",
          "name": "",
          "type": "uint256"
        }
      ],
      "name": "userVideos",
      "outputs": [
        {
          "internalType": "uint256",
          "name": "globalId",
          "type": "uint256"
        },
        {
          "internalType": "uint256",
          "name": "localId",
          "type": "uint256"
        },
        {
          "internalType": "string",
          "name": "hash",
          "type": "string"
        },
        {
          "internalType": "string",
          "name": "title",
          "type": "string"
        },
        {
          "internalType": "string",
          "name": "description",
          "type": "string"
        },
        {
          "internalType": "string",
          "name": "tag",
          "type": "string"
        }
      ],
      "stateMutability": "view",
      "type": "function",
      "constant": true
    },
    {
      "inputs": [],
      "name": "videoCount",
      "outputs": [
        {
          "internalType": "uint256",
          "name": "",
          "type": "uint256"
        }
      ],
      "stateMutability": "view",
      "type": "function",
      "constant": true
    },
    {
      "inputs": [
        {
          "internalType": "uint256",
          "name": "",
          "type": "uint256"
        },
        {
          "internalType": "uint256",
          "name": "",
          "type": "uint256"
        }
      ],
      "name": "videos",
      "outputs": [
        {
          "internalType": "uint256",
          "name": "id",
          "type": "uint256"
        },
        {
          "internalType": "string",
          "name": "hash",
          "type": "string"
        },
        {
          "internalType": "string",
          "name": "title",
          "type": "string"
        },
        {
          "internalType": "string",
          "name": "description",
          "type": "string"
        },
        {
          "internalType": "string",
          "name": "tag",
          "type": "string"
        },
        {
          "internalType": "address",
          "name": "author",
          "type": "address"
        }
      ],
      "stateMutability": "view",
      "type": "function",
      "constant": true
    },
    {
      "inputs": [
        {
          "internalType": "string",
          "name": "_videoHash",
          "type": "string"
        },
        {
          "internalType": "string",
          "name": "_title",
          "type": "string"
        },
        {
          "internalType": "string",
          "name": "_description",
          "type": "string"
        },
        {
          "internalType": "string",
          "name": "_tag",
          "type": "string"
        }
      ],
      "name": "uploadVideo",
      "outputs": [],
      "stateMutability": "nonpayable",
      "type": "function"
    },
    {
      "inputs": [],
      "name": "enter",
      "outputs": [],
      "stateMutability": "payable",
      "type": "function",
      "payable": true
    },
    {
      "inputs": [
        {
          "internalType": "address payable",
          "name": "receiver",
          "type": "address"
        }
      ],
      "name": "transfer",
      "outputs": [],
      "stateMutability": "nonpayable",
      "type": "function"
    },
    {
      "inputs": [],
      "name": "getAllVideos",
      "outputs": [
        {
          "components": [
            {
              "internalType": "uint256",
              "name": "id",
              "type": "uint256"
            },
            {
              "internalType": "string",
              "name": "hash",
              "type": "string"
            },
            {
              "internalType": "string",
              "name": "title",
              "type": "string"
            },
            {
              "internalType": "string",
              "name": "description",
              "type": "string"
            },
            {
              "internalType": "string",
              "name": "tag",
              "type": "string"
            },
            {
              "internalType": "address",
              "name": "author",
              "type": "address"
            }
          ],
          "internalType": "struct Dtv.video[]",
          "name": "",
          "type": "tuple[]"
        }
      ],
      "stateMutability": "view",
      "type": "function",
      "constant": true
    },
    {
      "inputs": [
        {
          "internalType": "address",
          "name": "_videoId",
          "type": "address"
        }
      ],
      "name": "getUserVideos",
      "outputs": [
        {
          "components": [
            {
              "internalType": "uint256",
              "name": "globalId",
              "type": "uint256"
            },
            {
              "internalType": "uint256",
              "name": "localId",
              "type": "uint256"
            },
            {
              "internalType": "string",
              "name": "hash",
              "type": "string"
            },
            {
              "internalType": "string",
              "name": "title",
              "type": "string"
            },
            {
              "internalType": "string",
              "name": "description",
              "type": "string"
            },
            {
              "internalType": "string",
              "name": "tag",
              "type": "string"
            }
          ],
          "internalType": "struct Dtv.userVideo[]",
          "name": "",
          "type": "tuple[]"
        }
      ],
      "stateMutability": "view",
      "type": "function",
      "constant": true
    },
    {
      "inputs": [
        {
          "internalType": "string",
          "name": "_tag",
          "type": "string"
        }
      ],
      "name": "videoByTag",
      "outputs": [
        {
          "internalType": "uint256[]",
          "name": "",
          "type": "uint256[]"
        }
      ],
      "stateMutability": "view",
      "type": "function",
      "constant": true
    }
  ],
  "bytecode": "0x60806040526000805534801561001457600080fd5b50612609806100246000396000f3fe6080604052600436106100915760003560e01c8063cec1c09211610059578063cec1c09214610194578063db83644b146101d1578063e97dcb62146101fa578063f3cdeb2814610204578063ff476f6a1461024657610091565b80631a695230146100965780636c3755ad146100bf5780637a4fec0714610101578063c38e34341461013e578063c61b5f4c14610169575b600080fd5b3480156100a257600080fd5b506100bd60048036038101906100b8919061163f565b610288565b005b3480156100cb57600080fd5b506100e660048036038101906100e191906116a2565b6102d2565b6040516100f89695949392919061176e565b60405180910390f35b34801561010d57600080fd5b5061012860048036038101906101239190611920565b61053e565b6040516101359190611a27565b60405180910390f35b34801561014a57600080fd5b506101536105b4565b6040516101609190611c14565b60405180910390f35b34801561017557600080fd5b5061017e6108cd565b60405161018b9190611c36565b60405180910390f35b3480156101a057600080fd5b506101bb60048036038101906101b69190611c7d565b6108d3565b6040516101c89190611e0a565b60405180910390f35b3480156101dd57600080fd5b506101f860048036038101906101f39190611e2c565b610bcd565b005b6102026110b9565b005b34801561021057600080fd5b5061022b60048036038101906102269190611f03565b6110bb565b60405161023d96959493929190611f52565b60405180910390f35b34801561025257600080fd5b5061026d60048036038101906102689190611fcf565b611354565b60405161027f9695949392919061176e565b60405180910390f35b8073ffffffffffffffffffffffffffffffffffffffff166108fc479081150290604051600060405180830381858888f193505050501580156102ce573d6000803e3d6000fd5b5050565b600581815481106102e257600080fd5b90600052602060002090600602016000915090508060000154908060010154908060020180546103119061203e565b80601f016020809104026020016040519081016040528092919081815260200182805461033d9061203e565b801561038a5780601f1061035f5761010080835404028352916020019161038a565b820191906000526020600020905b81548152906001019060200180831161036d57829003601f168201915b50505050509080600301805461039f9061203e565b80601f01602080910402602001604051908101604052809291908181526020018280546103cb9061203e565b80156104185780601f106103ed57610100808354040283529160200191610418565b820191906000526020600020905b8154815290600101906020018083116103fb57829003601f168201915b50505050509080600401805461042d9061203e565b80601f01602080910402602001604051908101604052809291908181526020018280546104599061203e565b80156104a65780601f1061047b576101008083540402835291602001916104a6565b820191906000526020600020905b81548152906001019060200180831161048957829003601f168201915b5050505050908060050180546104bb9061203e565b80601f01602080910402602001604051908101604052809291908181526020018280546104e79061203e565b80156105345780601f1061050957610100808354040283529160200191610534565b820191906000526020600020905b81548152906001019060200180831161051757829003601f168201915b5050505050905086565b606060048260405161055091906120ab565b90815260200160405180910390208054806020026020016040519081016040528092919081815260200182805480156105a857602002820191906000526020600020905b815481526020019060010190808311610594575b50505050509050919050565b60606001600060018152602001908152602001600020805480602002602001604051908101604052809291908181526020016000905b828210156108c457838290600052602060002090600602016040518060c0016040529081600082015481526020016001820180546106279061203e565b80601f01602080910402602001604051908101604052809291908181526020018280546106539061203e565b80156106a05780601f10610675576101008083540402835291602001916106a0565b820191906000526020600020905b81548152906001019060200180831161068357829003601f168201915b505050505081526020016002820180546106b99061203e565b80601f01602080910402602001604051908101604052809291908181526020018280546106e59061203e565b80156107325780601f1061070757610100808354040283529160200191610732565b820191906000526020600020905b81548152906001019060200180831161071557829003601f168201915b5050505050815260200160038201805461074b9061203e565b80601f01602080910402602001604051908101604052809291908181526020018280546107779061203e565b80156107c45780601f10610799576101008083540402835291602001916107c4565b820191906000526020600020905b8154815290600101906020018083116107a757829003601f168201915b505050505081526020016004820180546107dd9061203e565b80601f01602080910402602001604051908101604052809291908181526020018280546108099061203e565b80156108565780601f1061082b57610100808354040283529160200191610856565b820191906000526020600020905b81548152906001019060200180831161083957829003601f168201915b505050505081526020016005820160009054906101000a900473ffffffffffffffffffffffffffffffffffffffff1673ffffffffffffffffffffffffffffffffffffffff1673ffffffffffffffffffffffffffffffffffffffff1681525050815260200190600101906105ea565b50505050905090565b60005481565b6060600260008373ffffffffffffffffffffffffffffffffffffffff1673ffffffffffffffffffffffffffffffffffffffff168152602001908152602001600020805480602002602001604051908101604052809291908181526020016000905b82821015610bc257838290600052602060002090600602016040518060c0016040529081600082015481526020016001820154815260200160028201805461097b9061203e565b80601f01602080910402602001604051908101604052809291908181526020018280546109a79061203e565b80156109f45780601f106109c9576101008083540402835291602001916109f4565b820191906000526020600020905b8154815290600101906020018083116109d757829003601f168201915b50505050508152602001600382018054610a0d9061203e565b80601f0160208091040260200160405190810160405280929190818152602001828054610a399061203e565b8015610a865780601f10610a5b57610100808354040283529160200191610a86565b820191906000526020600020905b815481529060010190602001808311610a6957829003601f168201915b50505050508152602001600482018054610a9f9061203e565b80601f0160208091040260200160405190810160405280929190818152602001828054610acb9061203e565b8015610b185780601f10610aed57610100808354040283529160200191610b18565b820191906000526020600020905b815481529060010190602001808311610afb57829003601f168201915b50505050508152602001600582018054610b319061203e565b80601f0160208091040260200160405190810160405280929190818152602001828054610b5d9061203e565b8015610baa5780601f10610b7f57610100808354040283529160200191610baa565b820191906000526020600020905b815481529060010190602001808311610b8d57829003601f168201915b50505050508152505081526020019060010190610934565b505050509050919050565b6000845111610c11576040517f08c379a0000000000000000000000000000000000000000000000000000000008152600401610c089061210e565b60405180910390fd5b6000835111610c55576040517f08c379a0000000000000000000000000000000000000000000000000000000008152600401610c4c9061217a565b60405180910390fd5b6000825111610c99576040517f08c379a0000000000000000000000000000000000000000000000000000000008152600401610c90906121e6565b60405180910390fd5b6000815111610cdd576040517f08c379a0000000000000000000000000000000000000000000000000000000008152600401610cd490612252565b60405180910390fd5b600073ffffffffffffffffffffffffffffffffffffffff163373ffffffffffffffffffffffffffffffffffffffff1603610d4c576040517f08c379a0000000000000000000000000000000000000000000000000000000008152600401610d43906122be565b60405180910390fd5b600080815480929190610d5e9061230d565b919050555060016000600181526020019081526020016000206040518060c0016040528060005481526020018681526020018581526020018481526020018381526020013373ffffffffffffffffffffffffffffffffffffffff168152509080600181540180825580915050600190039060005260206000209060060201600090919091909150600082015181600001556020820151816001019081610e049190612501565b506040820151816002019081610e1a9190612501565b506060820151816003019081610e309190612501565b506080820151816004019081610e469190612501565b5060a08201518160050160006101000a81548173ffffffffffffffffffffffffffffffffffffffff021916908373ffffffffffffffffffffffffffffffffffffffff1602179055505050600360003373ffffffffffffffffffffffffffffffffffffffff1673ffffffffffffffffffffffffffffffffffffffff1681526020019081526020016000206000815480929190610ee09061230d565b9190505550600260003373ffffffffffffffffffffffffffffffffffffffff1673ffffffffffffffffffffffffffffffffffffffff1681526020019081526020016000206040518060c001604052806000548152602001600360003373ffffffffffffffffffffffffffffffffffffffff1673ffffffffffffffffffffffffffffffffffffffff16815260200190815260200160002054815260200186815260200185815260200184815260200183815250908060018154018082558091505060019003906000526020600020906006020160009091909190915060008201518160000155602082015181600101556040820151816002019081610fe49190612501565b506060820151816003019081610ffa9190612501565b5060808201518160040190816110109190612501565b5060a08201518160050190816110269190612501565b50505060048160405161103991906120ab565b908152602001604051809103902060005490806001815401808255809150506001900390600052602060002001600090919091909150557fead8d0b9310131a957bd674b61113ff7cc873b1a2873c42f6aa73ae84a9c195160005485858585336040516110ab96959493929190611f52565b60405180910390a150505050565b565b600160205281600052604060002081815481106110d757600080fd5b9060005260206000209060060201600091509150508060000154908060010180546111019061203e565b80601f016020809104026020016040519081016040528092919081815260200182805461112d9061203e565b801561117a5780601f1061114f5761010080835404028352916020019161117a565b820191906000526020600020905b81548152906001019060200180831161115d57829003601f168201915b50505050509080600201805461118f9061203e565b80601f01602080910402602001604051908101604052809291908181526020018280546111bb9061203e565b80156112085780601f106111dd57610100808354040283529160200191611208565b820191906000526020600020905b8154815290600101906020018083116111eb57829003601f168201915b50505050509080600301805461121d9061203e565b80601f01602080910402602001604051908101604052809291908181526020018280546112499061203e565b80156112965780601f1061126b57610100808354040283529160200191611296565b820191906000526020600020905b81548152906001019060200180831161127957829003601f168201915b5050505050908060040180546112ab9061203e565b80601f01602080910402602001604051908101604052809291908181526020018280546112d79061203e565b80156113245780601f106112f957610100808354040283529160200191611324565b820191906000526020600020905b81548152906001019060200180831161130757829003601f168201915b5050505050908060050160009054906101000a900473ffffffffffffffffffffffffffffffffffffffff16905086565b6002602052816000526040600020818154811061137057600080fd5b9060005260206000209060060201600091509150508060000154908060010154908060020180546113a09061203e565b80601f01602080910402602001604051908101604052809291908181526020018280546113cc9061203e565b80156114195780601f106113ee57610100808354040283529160200191611419565b820191906000526020600020905b8154815290600101906020018083116113fc57829003601f168201915b50505050509080600301805461142e9061203e565b80601f016020809104026020016040519081016040528092919081815260200182805461145a9061203e565b80156114a75780601f1061147c576101008083540402835291602001916114a7565b820191906000526020600020905b81548152906001019060200180831161148a57829003601f168201915b5050505050908060040180546114bc9061203e565b80601f01602080910402602001604051908101604052809291908181526020018280546114e89061203e565b80156115355780601f1061150a57610100808354040283529160200191611535565b820191906000526020600020905b81548152906001019060200180831161151857829003601f168201915b50505050509080600501805461154a9061203e565b80601f01602080910402602001604051908101604052809291908181526020018280546115769061203e565b80156115c35780601f10611598576101008083540402835291602001916115c3565b820191906000526020600020905b8154815290600101906020018083116115a657829003601f168201915b5050505050905086565b6000604051905090565b600080fd5b600080fd5b600073ffffffffffffffffffffffffffffffffffffffff82169050919050565b600061160c826115e1565b9050919050565b61161c81611601565b811461162757600080fd5b50565b60008135905061163981611613565b92915050565b600060208284031215611655576116546115d7565b5b60006116638482850161162a565b91505092915050565b6000819050919050565b61167f8161166c565b811461168a57600080fd5b50565b60008135905061169c81611676565b92915050565b6000602082840312156116b8576116b76115d7565b5b60006116c68482850161168d565b91505092915050565b6116d88161166c565b82525050565b600081519050919050565b600082825260208201905092915050565b60005b838110156117185780820151818401526020810190506116fd565b60008484015250505050565b6000601f19601f8301169050919050565b6000611740826116de565b61174a81856116e9565b935061175a8185602086016116fa565b61176381611724565b840191505092915050565b600060c08201905061178360008301896116cf565b61179060208301886116cf565b81810360408301526117a28187611735565b905081810360608301526117b68186611735565b905081810360808301526117ca8185611735565b905081810360a08301526117de8184611735565b9050979650505050505050565b600080fd5b600080fd5b7f4e487b7100000000000000000000000000000000000000000000000000000000600052604160045260246000fd5b61182d82611724565b810181811067ffffffffffffffff8211171561184c5761184b6117f5565b5b80604052505050565b600061185f6115cd565b905061186b8282611824565b919050565b600067ffffffffffffffff82111561188b5761188a6117f5565b5b61189482611724565b9050602081019050919050565b82818337600083830152505050565b60006118c36118be84611870565b611855565b9050828152602081018484840111156118df576118de6117f0565b5b6118ea8482856118a1565b509392505050565b600082601f830112611907576119066117eb565b5b81356119178482602086016118b0565b91505092915050565b600060208284031215611936576119356115d7565b5b600082013567ffffffffffffffff811115611954576119536115dc565b5b611960848285016118f2565b91505092915050565b600081519050919050565b600082825260208201905092915050565b6000819050602082019050919050565b61199e8161166c565b82525050565b60006119b08383611995565b60208301905092915050565b6000602082019050919050565b60006119d482611969565b6119de8185611974565b93506119e983611985565b8060005b83811015611a1a578151611a0188826119a4565b9750611a0c836119bc565b9250506001810190506119ed565b5085935050505092915050565b60006020820190508181036000830152611a4181846119c9565b905092915050565b600081519050919050565b600082825260208201905092915050565b6000819050602082019050919050565b600082825260208201905092915050565b6000611a91826116de565b611a9b8185611a75565b9350611aab8185602086016116fa565b611ab481611724565b840191505092915050565b6000611aca826115e1565b9050919050565b611ada81611abf565b82525050565b600060c083016000830151611af86000860182611995565b5060208301518482036020860152611b108282611a86565b91505060408301518482036040860152611b2a8282611a86565b91505060608301518482036060860152611b448282611a86565b91505060808301518482036080860152611b5e8282611a86565b91505060a0830151611b7360a0860182611ad1565b508091505092915050565b6000611b8a8383611ae0565b905092915050565b6000602082019050919050565b6000611baa82611a49565b611bb48185611a54565b935083602082028501611bc685611a65565b8060005b85811015611c025784840389528151611be38582611b7e565b9450611bee83611b92565b925060208a01995050600181019050611bca565b50829750879550505050505092915050565b60006020820190508181036000830152611c2e8184611b9f565b905092915050565b6000602082019050611c4b60008301846116cf565b92915050565b611c5a81611abf565b8114611c6557600080fd5b50565b600081359050611c7781611c51565b92915050565b600060208284031215611c9357611c926115d7565b5b6000611ca184828501611c68565b91505092915050565b600081519050919050565b600082825260208201905092915050565b6000819050602082019050919050565b600060c083016000830151611cee6000860182611995565b506020830151611d016020860182611995565b5060408301518482036040860152611d198282611a86565b91505060608301518482036060860152611d338282611a86565b91505060808301518482036080860152611d4d8282611a86565b91505060a083015184820360a0860152611d678282611a86565b9150508091505092915050565b6000611d808383611cd6565b905092915050565b6000602082019050919050565b6000611da082611caa565b611daa8185611cb5565b935083602082028501611dbc85611cc6565b8060005b85811015611df85784840389528151611dd98582611d74565b9450611de483611d88565b925060208a01995050600181019050611dc0565b50829750879550505050505092915050565b60006020820190508181036000830152611e248184611d95565b905092915050565b60008060008060808587031215611e4657611e456115d7565b5b600085013567ffffffffffffffff811115611e6457611e636115dc565b5b611e70878288016118f2565b945050602085013567ffffffffffffffff811115611e9157611e906115dc565b5b611e9d878288016118f2565b935050604085013567ffffffffffffffff811115611ebe57611ebd6115dc565b5b611eca878288016118f2565b925050606085013567ffffffffffffffff811115611eeb57611eea6115dc565b5b611ef7878288016118f2565b91505092959194509250565b60008060408385031215611f1a57611f196115d7565b5b6000611f288582860161168d565b9250506020611f398582860161168d565b9150509250929050565b611f4c81611abf565b82525050565b600060c082019050611f6760008301896116cf565b8181036020830152611f798188611735565b90508181036040830152611f8d8187611735565b90508181036060830152611fa18186611735565b90508181036080830152611fb58185611735565b9050611fc460a0830184611f43565b979650505050505050565b60008060408385031215611fe657611fe56115d7565b5b6000611ff485828601611c68565b92505060206120058582860161168d565b9150509250929050565b7f4e487b7100000000000000000000000000000000000000000000000000000000600052602260045260246000fd5b6000600282049050600182168061205657607f821691505b6020821081036120695761206861200f565b5b50919050565b600081905092915050565b6000612085826116de565b61208f818561206f565b935061209f8185602086016116fa565b80840191505092915050565b60006120b7828461207a565b915081905092915050565b7f766964656f20646f6573206e6f74206578697374000000000000000000000000600082015250565b60006120f86014836116e9565b9150612103826120c2565b602082019050919050565b60006020820190508181036000830152612127816120eb565b9050919050565b7f7469746c6520646f6573206e6f74206578697374000000000000000000000000600082015250565b60006121646014836116e9565b915061216f8261212e565b602082019050919050565b6000602082019050818103600083015261219381612157565b9050919050565b7f6465736372697074696f6e20646f6573206e6f74206578697374000000000000600082015250565b60006121d0601a836116e9565b91506121db8261219a565b602082019050919050565b600060208201905081810360008301526121ff816121c3565b9050919050565b7f74616720646f6573206e6f742065786973740000000000000000000000000000600082015250565b600061223c6012836116e9565b915061224782612206565b602082019050919050565b6000602082019050818103600083015261226b8161222f565b9050919050565b7f6164647265737320646f6573206e6f7420657869737400000000000000000000600082015250565b60006122a86016836116e9565b91506122b382612272565b602082019050919050565b600060208201905081810360008301526122d78161229b565b9050919050565b7f4e487b7100000000000000000000000000000000000000000000000000000000600052601160045260246000fd5b60006123188261166c565b91507fffffffffffffffffffffffffffffffffffffffffffffffffffffffffffffffff820361234a576123496122de565b5b600182019050919050565b60008190508160005260206000209050919050565b60006020601f8301049050919050565b600082821b905092915050565b6000600883026123b77fffffffffffffffffffffffffffffffffffffffffffffffffffffffffffffffff8261237a565b6123c1868361237a565b95508019841693508086168417925050509392505050565b6000819050919050565b60006123fe6123f96123f48461166c565b6123d9565b61166c565b9050919050565b6000819050919050565b612418836123e3565b61242c61242482612405565b848454612387565b825550505050565b600090565b612441612434565b61244c81848461240f565b505050565b5b8181101561247057612465600082612439565b600181019050612452565b5050565b601f8211156124b55761248681612355565b61248f8461236a565b8101602085101561249e578190505b6124b26124aa8561236a565b830182612451565b50505b505050565b600082821c905092915050565b60006124d8600019846008026124ba565b1980831691505092915050565b60006124f183836124c7565b9150826002028217905092915050565b61250a826116de565b67ffffffffffffffff811115612523576125226117f5565b5b61252d825461203e565b612538828285612474565b600060209050601f83116001811461256b5760008415612559578287015190505b61256385826124e5565b8655506125cb565b601f19841661257986612355565b60005b828110156125a15784890151825560018201915060208501945060208101905061257c565b868310156125be57848901516125ba601f8916826124c7565b8355505b6001600288020188555050505b50505050505056fea26469706673582212206927f5699881c330edf05e6295c16f88151b68ec1d48f2ac6d96da91b0dab7f864736f6c63430008110033",
  "immutableReferences": {},
  "source": "// SPDX-License-Identifier: MIT\r\npragma solidity ^0.8.0;\r\n\r\ncontract Dtv {\r\n    uint256 public videoCount=0;\r\n    mapping(uint256 => video[]) public videos;\r\n    mapping(address => userVideo[]) public userVideos;\r\n    mapping(address => uint256) userVideoId;\r\n    mapping(string=>uint256[]) tag;\r\n\r\n    struct video {\r\n        uint256 id;\r\n        string hash;\r\n        string title;\r\n        string description;\r\n        string tag;\r\n        address author;\r\n    }\r\n    struct userVideo {\r\n        uint256 globalId;\r\n        uint256 localId;\r\n        string hash;\r\n        string title;\r\n        string description;\r\n        string tag;\r\n    }\r\n\r\n    userVideo[] public temp;\r\n\r\n    event videoUploaded(uint256 id, string hash, string title,string description,string tag, address author);\r\n    event videoDeleted(uint256 id, string title);\r\n\r\n    function uploadVideo(string memory _videoHash, string memory _title, string memory _description, string memory _tag)\r\n        public\r\n    {\r\n        require(bytes(_videoHash).length > 0, \"video does not exist\");\r\n        require(bytes(_title).length > 0, \"title does not exist\");\r\n        require(bytes(_description).length > 0, \"description does not exist\");\r\n        require(bytes(_tag).length > 0, \"tag does not exist\");\r\n        require(msg.sender != address(0), \"address does not exist\");\r\n\r\n        videoCount++;\r\n        videos[1].push( video(videoCount, _videoHash, _title,_description,_tag, msg.sender));\r\n        userVideoId[msg.sender]++;\r\n        userVideos[msg.sender].push(\r\n            userVideo(videoCount, userVideoId[msg.sender], _videoHash, _title,_description,_tag)\r\n        );\r\n        tag[_tag].push(videoCount);\r\n        emit videoUploaded(videoCount, _videoHash, _title,_description,_tag, msg.sender);\r\n    }\r\n\r\n    function enter() public payable {\r\n        payable(msg.sender);\r\n    }\r\n\r\n     function transfer(address payable receiver) external {\r\n        receiver.transfer(address(this).balance);\r\n    }\r\n\r\n    function getAllVideos() public view returns(video[] memory){\r\n        return videos[1];\r\n    }\r\n\r\n    function getUserVideos(address _videoId) public view returns(userVideo[] memory){\r\n        return userVideos[_videoId];\r\n    }\r\n\r\n    function videoByTag(string memory _tag) public view returns(uint[] memory){\r\n        return tag[_tag];\r\n    }\r\n    \r\n}\r\n",
  "sourcePath": "C:\\Users\\Tarun Singh\\Desktop\\New folder\\youtube\\contracts\\dtv.sol",
  "compiler": {
    "name": "solc",
    "version": "0.8.17+commit.8df45f5f.Emscripten.clang"
  },
  "schemaVersion": "3.4.10",
  "updatedAt": "2023-05-24T00:20:19.771Z",
  "networkType": "ethereum",
  "devdoc": {
    "kind": "dev",
    "methods": {},
    "version": 1
  },
  "userdoc": {
    "kind": "user",
    "methods": {},
    "version": 1
  }
}